{
    "_format": "hh-sol-artifact-1",
    "contractName": "HelloWorld",
    "sourceName": "contracts/HelloWorld.sol",
    "abi": [
        {
            "inputs": [
                {
                    "internalType": "string",
                    "name": "initMessage",
                    "type": "string"
                }
            ],
            "stateMutability": "nonpayable",
            "type": "constructor"
        },
        {
            "anonymous": false,
            "inputs": [
                {
                    "indexed": true,
                    "internalType": "address",
                    "name": "from",
                    "type": "address"
                },
                {
                    "indexed": false,
                    "internalType": "string",
                    "name": "oldStr",
                    "type": "string"
                },
                {
                    "indexed": false,
                    "internalType": "string",
                    "name": "newStr",
                    "type": "string"
                }
            ],
            "name": "UpdateMessage",
            "type": "event"
        },
        {
            "inputs": [],
            "name": "message",
            "outputs": [
                {
                    "internalType": "string",
                    "name": "",
                    "type": "string"
                }
            ],
            "stateMutability": "view",
            "type": "function"
        },
        {
            "inputs": [
                {
                    "internalType": "string",
                    "name": "newMessage",
                    "type": "string"
                }
            ],
            "name": "updateMessage",
            "outputs": [],
            "stateMutability": "nonpayable",
            "type": "function"
        }
    ],
    "bytecode": "0x608060405234801561001057600080fd5b5060405161065e38038061065e83398101604081905261002f916100f8565b8051610042906000906020840190610049565b5050610202565b828054610055906101c7565b90600052602060002090601f01602090048101928261007757600085556100bd565b82601f1061009057805160ff19168380011785556100bd565b828001600101855582156100bd579182015b828111156100bd5782518255916020019190600101906100a2565b506100c99291506100cd565b5090565b5b808211156100c957600081556001016100ce565b634e487b7160e01b600052604160045260246000fd5b6000602080838503121561010b57600080fd5b82516001600160401b038082111561012257600080fd5b818501915085601f83011261013657600080fd5b815181811115610148576101486100e2565b604051601f8201601f19908116603f01168101908382118183101715610170576101706100e2565b81604052828152888684870101111561018857600080fd5b600093505b828410156101aa578484018601518185018701529285019261018d565b828411156101bb5760008684830101525b98975050505050505050565b600181811c908216806101db57607f821691505b602082108114156101fc57634e487b7160e01b600052602260045260246000fd5b50919050565b61044d806102116000396000f3fe608060405234801561001057600080fd5b50600436106100365760003560e01c80631923be241461003b578063e21f37ce14610050575b600080fd5b61004e610049366004610296565b61006e565b005b610058610159565b6040516100659190610394565b60405180910390f35b600080805461007c906103ae565b80601f01602080910402602001604051908101604052809291908181526020018280546100a8906103ae565b80156100f55780601f106100ca576101008083540402835291602001916100f5565b820191906000526020600020905b8154815290600101906020018083116100d857829003601f168201915b50508551939450610111936000935060208701925090506101e7565b50336001600160a01b03167f393bbe2c5115b2370579ad2f520ee8319935cff3b04145a3246b8c8c7730dc73828460405161014d9291906103e9565b60405180910390a25050565b60008054610166906103ae565b80601f0160208091040260200160405190810160405280929190818152602001828054610192906103ae565b80156101df5780601f106101b4576101008083540402835291602001916101df565b820191906000526020600020905b8154815290600101906020018083116101c257829003601f168201915b505050505081565b8280546101f3906103ae565b90600052602060002090601f016020900481019282610215576000855561025b565b82601f1061022e57805160ff191683800117855561025b565b8280016001018555821561025b579182015b8281111561025b578251825591602001919060010190610240565b5061026792915061026b565b5090565b5b80821115610267576000815560010161026c565b634e487b7160e01b600052604160045260246000fd5b6000602082840312156102a857600080fd5b813567ffffffffffffffff808211156102c057600080fd5b818401915084601f8301126102d457600080fd5b8135818111156102e6576102e6610280565b604051601f8201601f19908116603f0116810190838211818310171561030e5761030e610280565b8160405282815287602084870101111561032757600080fd5b826020860160208301376000928101602001929092525095945050505050565b6000815180845260005b8181101561036d57602081850181015186830182015201610351565b8181111561037f576000602083870101525b50601f01601f19169290920160200192915050565b6020815260006103a76020830184610347565b9392505050565b600181811c908216806103c257607f821691505b602082108114156103e357634e487b7160e01b600052602260045260246000fd5b50919050565b6040815260006103fc6040830185610347565b828103602084015261040e8185610347565b9594505050505056fea264697066735822122023780dcdca4253935285f2f057f21811f1d78ed54cbf11ad5f79856d4060ad4e64736f6c63430008090033",
    "linkReferences": {},
    "deployedLinkReferences": {}
}